:100000000C942A000C943F000C943F000C943F0089
:100010000C943F000C943F000C943F000C943F0064
:100020000C943F000C943F000C943F000C943F0054
:100030000C943F000C943F000C943F000C943F0044
:100040000C943F000C943F000C943F000C943F0034
:100050000C943F0011241FBECFE5D8E0DEBFCDBF1A
:1000600010E0A0E6B0E0E2ECF3E002C005900D92F3
:10007000AA36B107D9F70E94C8010C94DF010C948D
:1000800000004130B1F5813099F0813030F082309C
:10009000D1F0833009F06BC021C02AB381E090E039
:1000A00002C0880F991F6A95E2F7282B2ABB5DC012
:1000B00027B381E090E002C0880F991F6A95E2F7AC
:1000C000282B27BB52C024B381E090E002C0880FE8
:1000D000991F6A95E2F7282B24BB47C021B381E022
:1000E00090E002C0880F991F6A95E2F7282B21BB88
:1000F0003CC0442311F080E00895813099F08130B4
:1001000028F08230D9F0833091F524C02AB381E001
:1001100090E002C0880F991F6A95E2F780958223CC
:100120008ABB23C027B381E090E002C0880F991FEB
:100130006A95E2F78095822387BB17C024B381E0DC
:1001400090E002C0880F991F6A95E2F7809582239C
:1001500084BB0BC021B381E090E002C0880F991FDF
:100160006A95E2F78095822381BB81E0089581E062
:1001700008954130B1F5813099F0813030F082300E
:10018000D1F0833009F067C021C02BB381E090E04B
:1001900002C0880F991F6A95E2F7282B2BBB0895A0
:1001A00028B381E090E002C0880F991F6A95E2F7BA
:1001B000282B28BB089525B381E090E002C0880F6A
:1001C000991F6A95E2F7282B25BB089522B381E099
:1001D00090E002C0880F991F6A95E2F7282B22BB96
:1001E00008954423C1F5813099F0813028F08230A0
:1001F000D9F0833081F524C02BB381E090E002C0B8
:10020000880F991F6A95E2F7809582238BBB08952A
:1002100028B381E090E002C0880F991F6A95E2F749
:100220008095822388BB089525B381E090E002C0C9
:10023000880F991F6A95E2F78095822385BB089500
:1002400022B381E090E002C0880F991F6A95E2F71F
:100250008095822382BB0895813051F0813030F047
:10026000823041F0833079F080E0089589B303C093
:1002700086B301C083B390E002C0959587956A95D7
:10028000E2F78170089580B390E002C0959587955C
:100290006A95E2F781700895813049F0813028F045
:1002A000823039F0833041F406C06ABB089567BBE1
:1002B000089564BB089561BB0895813049F0813091
:1002C00028F0823039F0833041F406C06BBB0895CA
:1002D00068BB089565BB089562BB089582E060E045
:1002E0000E945D0108956A3040F4E62FF0E0E05A84
:1002F000FF4F82E060810E945D01089582E06FEF10
:100300000E944C010895DF92EF92FF920F931F938A
:10031000CF93DF93DD24FF24F394C0E2DEE483E097
:10032000E82EEF0C81E06E2D40E00E94B9000F2D09
:1003300010E081E0612F0E942C01882309F4D02E67
:1003400081E0612F0E942C018823D1F3CE01019717
:10035000F1F71F5F0D5F143061F781E06E2D41E012
:100360000E94B900F39484E0F816C9F68D2DDF9150
:10037000CF911F910F91FF90EF90DF90089581E052
:1003800060EF0E944C0181E06FEF0E945D010895D3
:100390001F93CF93DF930E947E0110E0C8ECD0E062
:1003A00081E0612F0E94730184EC99E0FE01319796
:1003B000F1F70197D9F71F5F1A3091F7FFCFF89443
:0203C000FFCF6D
:0A03C2003F065B4F666D7D077F6FFD
:00000001FF
